:100000000AC032C023C022C021C04CC03FC01EC0A5
:100010001DC01CC01BC011271FBFCFE5D0E0DEBF35
:10002000CDBF20E0A0E4B0E0E0E6F1E402C0319111
:100030003D93A034B207D9F710E0A0E4B0E001C0CE
:100040001D93A635B107E1F74AD088C0D9CF17BFB5
:1000500019BF16BF1EBD1DBD83E08BBD80ED90E0B6
:1000600097BD86BD1BA908951F930F930FB70F93DC
:1000700010E08F939F9388B599B59AA989A99F910C
:100080008F910F910FBF0F911F9118951F930F9391
:100090000FB70F9310E0909A0A980F910FBF0F912E
:1000A0001F9118951F930F930FB70F9310E08F9325
:1000B0009F9380B1817085AB88A1882311F0119A3C
:1000C00001C0119886B597B58F559E4F97BD86BDD7
:1000D0009F918F910F910FBF0F911F911895B7DFCF
:1000E000B5A3C2A3D0E02B2F30E053A171A1ECA1A6
:1000F000A1A362A1F0A1CC5BDF4F01C060E0713031
:1001000059F0713018F07430C9F414C0BB23B1F445
:10011000A0E0E0E071E012C0EF5F822F932F0E2F7E
:1001200002C0880F991F0A95E2F7A82BE83031F436
:1001300074E004C0BB2311F0A88370E0623049F082
:100140006430E1F26623D9F65523C9F2F0E062E0AB
:10015000D6CFFF5FF83099F664E0D1CFF894FFCFA7
:00000001FF
