:100000000AC032C023C022C040C049C043C01EC085
:100010001DC01CC01BC011271FBFCFE5D0E0DEBF35
:10002000CDBF20E0A0E4B0E0E8E7F1E402C0319108
:100030003D93A034B207D9F710E0A0E4B0E001C0CE
:100040001D93A835B107E1F756D094C0D9CF17BF9B
:1000500019BF16BF1EBD1DBD87E08BBD80ED90E0B2
:1000600097BD86BD1CA908950F930FB78F939F93DB
:1000700088B599B58E539F4F97BD86BD80E083BBF1
:100080009F918F910FBF0F9118958F9382E081B947
:100090008F9118958F9380A18BBD8F9118951F9389
:1000A0000F930FB70F9310E08F939F9386B597B57B
:1000B0008D569E4F97BD86BD80B18695869590E002
:1000C00081709070880F991F92A3982B92AB80B18A
:1000D00095A3892B80B986A38F5F86AB8A3020F0E9
:1000E0008BB58D7F8BBD10A99F918F910F910FBF05
:1000F0000F911F911895ABDFB7A3C3A3D0E02B2FAF
:1001000030E054A172A1EDA1A2A363A1F1A1CB5B48
:10011000DF4F01C060E0713059F0713018F0743079
:10012000C9F414C0BB23B1F4A0E0E0E071E012C058
:10013000EF5F822F932F0E2F02C0880F991F0A9511
:10014000E2F7A82BE83031F474E004C0BB2311F0CF
:10015000A88370E0623049F06430E1F26623D9F69A
:100160005523C9F2F0E062E0D6CFFF5FF83099F690
:0801700064E0D1CFF894FFCF49
:00000001FF
