:100000000AC02DC023C022C072C034C075C01EC03B
:100010001DC01CC01BC011271FBFCFE5D0E0DEBF35
:10002000CDBF20E0A0E4B0E0EEE2F1E402C0319107
:100030003D93A034B207D9F710E0A0E4B0E001C0CE
:100040001D93A734B107E1F75DD06FC0D9CF17BFBB
:1000500019BF16BF1EBD1DBD87E08BBD08957894E6
:1000600088B599B58D569E4F97BD86BD13BB8BB590
:1000700082608BBD1F930F930FB70F9310E06F93A8
:100080007F938F939F93789486B597B58E539F4FA8
:1000900097BD86BD80A1882321F4119881E080A9B5
:1000A0001DC08930B0F480B186958695817095A188
:1000B000892B880F85A962B176A1872F90E0817086
:1000C0009070880F991F6D7F682B62B9769576A91D
:1000D00005C0119A8BB58D7F8BBD10A99F918F9113
:1000E0007F916F910F910FBF0F911F9118958F9373
:1000F00082E081B98F9118958F938BB582708BBDFB
:100100008F911895A4DF61E0989BFECF0BB501FF9E
:10011000FBCF95A197FF06C094A981A1892B806888
:0E01200086A901C096A963BBEFCFF894FFCF6C
:00000001FF
