:100000000AC037C023C022C08EC090C04BC01EC0E3
:100010001DC01CC01BC011271FBFCFE5D0E0DEBF35
:10002000CDBF20E0A0E4B0E0EAE9F1E402C0319104
:100030003D93A034B207D9F710E0A0E4B0E001C0CE
:100040001D93A934B107E1F773D0A5C0D9CFF894B7
:1000500017BF19BF16BF1EBD80EC8DBD1BBD8AEA40
:1000600087A98BB581608BBD8DB581608DBD78947E
:1000700008951F930F930FB70F9310E08F939F93E3
:10008000789488B599B58D569E4F97BD86BD13BBA4
:100090008BB584608BBD9F918F910F910FBF0F9196
:1000A0001F9118951F930F930FB70F9310E06F9345
:1000B0007F938F939F93789486B597B58E539F4F78
:1000C00097BD86BD80A1882321F4139881E080A983
:1000D00021C08930D0F480B186958695817097A132
:1000E000892B880F87A962B178A1872F90E0817052
:1000F0009070880F991F880F991F880F991F677F2D
:10010000682B62B9769578A905C0139A8BB58B7F59
:100110008BBD10A99F918F917F916F910F910FBF10
:100120000F911F911895109809981895109A189585
:100130008EDF61E0989B15C00BB502FF12C087A14E
:1001400087FF0CC093A197FF09C086A9792F74700F
:100150008068782B78A99B7793A901C088A964BB94
:1001600063BB88B599B57CE98034970738F08BB5C7
:1001700081708BBD099A8BB581608BBD83A190E0A6
:1001800080FD05C0867090708630910799F682A137
:0A01900087BD16BDCFCFF894FFCF56
:00000001FF
