:100000000AC040C023C022C097C099C054C01EC0BF
:100010001DC01CC01BC011271FBFCFE5D0E0DEBF35
:10002000CDBF20E0A0E4B0E0E8ECF2E402C0319102
:100030003D93A034B207D9F710E0A0E4B0E001C0CE
:100040001D93AE34B107E1F77CD03CC1D9CFF89411
:1000500088ED8CBF16BF17BF89E082B98BE081B9EC
:1000600084E083B91EBD80EC8DBD1BBD19BD18BDDC
:100070008AEA8AA98BB581608BBD8DB581608DBD03
:10008000789408951F930F930FB70F9310E08F93F9
:100090009F93789488B599B58D569E4F97BD86BD30
:1000A00013BB8BB584608BBD9F918F910F910FBF58
:1000B0000F911F9118951F930F930FB70F9310E097
:1000C0006F937F938F939F93789486B597B58E5354
:1000D0009F4F97BD86BD80A1882321F4139881E0AE
:1000E00080A921C08930D0F480B186958695817031
:1000F0009AA1892B880F8AA962B17DA1872F90E0F0
:1001000081709070880F991F880F991F880F991F11
:10011000677F682B62B976957DA905C0139A8BB568
:100120008B7F8BBD10A99F918F917F916F910F91C4
:100130000FBF0F911F911895109809981895109A54
:100140001895CF93DF9300D000D000D0CDB7DEB7A5
:100150007EDF21E0EFEF32E098991EC00BB502FD83
:100160001BC000008AA180FF12C096A190FF0FC0A3
:100170009971682F667E962B692F68708160682B55
:100180006DA9967F96A99F6197BDE6BD01C08DA917
:1001900024BB23BB0000E0CF88B599B54CE980347F
:1001A000940708F480C00AB505FF09C062B573B5AD
:1001B000C95FDF4F7A936A93C550D04008C080E48E
:1001C0009CE9C95FDF4F9A938A93C550D040CB5FBB
:1001D000DF4FA991B881C650D040BCA9ABA94A2F26
:1001E0005B2F60E070E0CF5FDF4F499359936993D5
:1001F0007883C450D04044A155A160E070E0B72F8F
:10020000A62F952F842FF5E0880F991FAA1FBB1FDB
:10021000FA95D1F7841B950BA60BB70BCF5FDF4F79
:100220004991599169917881C450D040480F591F24
:100230006A1F7B1FF5E0440F551F661F771FFA9555
:10024000D1F7FAE07695679557954795FA95D1F7E6
:10025000CF5FDF4F4993599369937883C450D0405F
:1002600055A944A9CF5FDF4F89919881C250D040F2
:1002700080509E4FCB5FDF4F69917881C650D04050
:100280008617970750F482A18F5F82A9823030F0E1
:1002900032A986A1886086A901C012A98AB58062A8
:1002A0008ABD1198099A86A190E081FD05C08C70E5
:1002B00090708C30910719F4089A18984DCF0898CF
:0802C000189A4ACFF894FFCF11
:00000001FF
