:100000000AC046C023C022C09AC09CC05BC01EC0AC
:100010001DC01CC01BC011271FBFCFE5D0E0DEBF35
:10002000CDBF20E0A0E4B0E0E0E5F1E402C0319112
:100030003D93A034B207D9F710E0A0E4B0E001C0CE
:100040001D93AE34B107E1F77FD080C0D9CFF894CB
:1000500088ED8CBF16BF17BF89E082B98BE081B9EC
:1000600084E083B9A99A989AA09A1EBD80EC8DBDB0
:100070001BBD19BD18BD80E49FE195A984A91AA9EB
:1000800081E48DA910A98DB581608DBD7894089506
:100090001F930F930FB70F9310E08F939F93789454
:1000A00088B599B58F579E4F95BD84BDA09A9898F5
:1000B0008BB584608BBD9F918F910F910FBF0F9176
:1000C0001F9118951F930F930FB70F9310E08F9305
:1000D0009F93789488B599B5865D9C4F95BD84BDF6
:1000E00080A1882319F4109881E016C08930B0F4FB
:1000F0008AA1029B02C0816001C08E7F8AA98AA169
:10010000880F8AA98DA180FF02C0109A01C01098A3
:1001100086958DA980A18F5F80A90AC0109A8AA1B7
:100120008DA91AA910A98BB58B7F8BBDA09A989A1F
:100130009F918F910F910FBF0F911F911895139859
:1001400009981895139A189582DFFFCFF894FFCF7E
:00000001FF
