:100000000AC024C023C022C021C03AC02DC01EC0D7
:100010001DC01CC01BC011271FBFCFE5D0E0DEBF35
:10002000CDBF20E0A0E4B0E0E6EBF0E402C0319107
:100030003D93A034B207D9F710E0A0E4B0E001C0CE
:100040001D93A035B107E1F732D033C0D9CF17BF28
:1000500019BF16BF1EBD1DBD83E08BBD80ED90E0B6
:1000600097BD86BD19A908951F930F930FB70F93DE
:1000700010E0909A0A980F910FBF0F911F91189559
:100080001F930F930FB70F9310E08F939F9380B13F
:1000900081708FA986B597B58F559E4F97BD86BD48
:1000A0009F918F910F910FBF0F911F911895CFDFE7
:0600B000FFCFF894FFCF22
:00000001FF
