:100000000AC04DC023C022C0BBC0BDC065C01EC059
:100010001DC01CC01BC011271FBFCFE5D0E0DEBF35
:10002000CDBF20E0A0E4B0E0E8EDF1E402C0319102
:100030003D93A034B207D9F710E0A0E4B0E001C0CE
:100040001D93AE34B107E1F7A0D0C4C0D9CFF89466
:1000500088ED8CBF16BF17BF89E082B98BE081B9EC
:1000600084E083B91EBD80EC8DBD1BBD19BD18BDDC
:1000700080E49FE195A984A91AA985E58DA910A915
:1000800080E090EF95BD84BD8BB584608BBD8BB552
:1000900081608BBD8DB581608DBD789408951F936F
:1000A0000F930FB70F9310E08F939F93789488B5B9
:1000B00099B584549F4F95BD84BDA09A98988AB5F0
:1000C00084608ABD8BB584608BBD9F918F910F91A9
:1000D0000FBF0F911F9118951F930F930FB70F9399
:1000E00010E08F939F93789484B595B580569E4F7A
:1000F00095BD84BD80A18F5F80A9813019F18930C1
:1001000098F48AA1029B02C0806801C08F778AA9F7
:100110008AA186958AA98DA180FF02C0109A01C08C
:10012000109886958DA925C0893071F48AA1029B0B
:1001300002C0806801C08F778AA98DA180FF02C0AC
:10014000109A17C0109815C0109A84B595B5805CA8
:100150009F4E95BD84BD8BA19CA196958795969544
:100160008795969587958DA91AA910A98BB58B7F30
:100170008BBD9F918F910F910FBF0F911F9118957C
:10018000139809981895139A189561DF88B599B551
:100190006CE980349607A0F086A184FD11C0099A0D
:1001A000806186A9F89482B593B59CA98BA97894AF
:1001B0008AB580628ABD8BB584608BBD099AE6CF13
:1001C00088B599B56CE98034960700F786A18F7ED3
:0801D00086A9DCCFF894FFCFF3
:00000001FF
