:100000000AC040C023C022C097C099C054C01EC0BF
:100010001DC01CC01BC011271FBFCFE5D0E0DEBF35
:10002000CDBF20E0A0E4B0E0EEEBF1E402C03191FE
:100030003D93A034B207D9F710E0A0E4B0E001C0CE
:100040001D93A934B107E1F77CD0B7C0D9CFF8949C
:1000500088ED8CBF16BF17BF89E082B98BE081B9EC
:1000600084E083B91EBD80EC8DBD1BBD19BD18BDDC
:100070008AEA87A98BB581608BBD8DB581608DBD06
:10008000789408951F930F930FB70F9310E08F93F9
:100090009F93789488B599B58D569E4F97BD86BD30
:1000A00013BB8BB584608BBD9F918F910F910FBF58
:1000B0000F911F9118951F930F930FB70F9310E097
:1000C0006F937F938F939F93789486B597B58E5354
:1000D0009F4F97BD86BD80A1882321F4139881E0AE
:1000E00080A921C08930D0F480B186958695817031
:1000F00097A1892B880F87A962B178A1872F90E0FB
:1001000081709070880F991F880F991F880F991F11
:10011000677F682B62B9769578A905C0139A8BB56D
:100120008B7F8BBD10A99F918F917F916F910F91C4
:100130000FBF0F911F911895109A09981895109854
:10014000189585DF61E07FEF98991BC00BB502FD24
:1001500018C087A180FF12C093A190FF0FC09971B2
:10016000E82FE67E9E2BE92FE8708160E82BE8A956
:10017000967F93A99F6197BD76BD01C088A964BB96
:1001800063BB88B599B5ECE980349E0738F08BB530
:100190008E7F8BBD099A8BB581608BBD83A190E06A
:1001A00081FD05C08C7090708C30910719F4089A0D
:0E01B0001898CACF0898189AC7CFF894FFCFB6
:00000001FF
