:100000000AC02DC023C022C084C020C041C01EC071
:100010001DC01CC01BC011271FBFCFE5D0E0DEBF35
:10002000CDBF20E0A0E4B0E0E2E6F1E402C031910F
:100030003D93A034B207D9F710E0A0E4B0E001C0CE
:100040001D93A734B107E1F766D089C0D9CF17BF98
:1000500019BF16BF1EBD1DBD87E08BBD08951F9340
:100060000F930FB70F9310E08F939F93789488B5F9
:1000700099B58D569E4F97BD86BD13BB8BB58460D9
:100080008BBD9F918F910F910FBF0F911F9118956D
:100090001F930F930FB70F9310E06F937F938F937E
:1000A0009F93789486B597B58E539F4F97BD86BD25
:1000B00080A1882321F4139881E080A921C0893090
:1000C000D0F480B186958695817095A1892B880F93
:1000D00085A962B176A1872F90E081709070880F1A
:1000E000991F880F991F880F991F677F682B62B926
:1000F000769576A905C0139A8BB58B7F8BBD10A919
:100100009F918F917F916F910F910FBF0F911F91D1
:100110001895099818959BDF61E0989B0FC00BB567
:1001200002FF0CC095A197FF06C094A981A1892B5D
:10013000806886A901C096A964BB63BB88B599B5E0
:100140007CE98034970748F30AB500FFE6CF8BB50A
:1001500081708BBD099A8BB581608BBDDECFF89421
:02016000FFCFCF
:00000001FF
