:100000000AC032C023C022C043C04CC046C01EC07C
:100010001DC01CC01BC011271FBFCFE5D0E0DEBF35
:10002000CDBF20E0A0E4B0E0E2E6F1E402C031910F
:100030003D93A034B207D9F710E0A0E4B0E001C0CE
:100040001D93A635B107E1F74BD089C0D9CF17BFB3
:1000500019BF16BF1EBD1DBD87E08BBD80ED90E0B2
:1000600097BD86BD1BA908951F930F930FB70F93DC
:1000700010E08F939F9388B599B580539F4F97BD9C
:1000800086BD9F918F910F910FBF0F911F91189572
:100090008F9382E081B98F9118958F9383A38BBD45
:1000A0008F9118951F930F930FB70F9310E08F93B5
:1000B0009F9380B1817085AB88A1882311F0119A3C
:1000C00001C0119886B597B58F559E4F97BD86BDD7
:1000D000909A9F918F910F910FBF0F911F9118953B
:1000E000B6DFB5A3C2A3D0E02B2F30E053A171A19E
:1000F000ECA1A1A362A1F0A1CC5BDF4F01C060E045
:10010000713059F0713018F07430C9F414C0BB2349
:10011000B1F4A0E0E0E071E012C0EF5F822F932F16
:100120000E2F02C0880F991F0A95E2F7A82BE8301E
:1001300031F474E004C0BB2311F0A88370E0623096
:1001400049F06430E1F26623D9F65523C9F2F0E0B4
:1001500062E0D6CFFF5FF83099F664E0D1CFF89433
:02016000FFCFCF
:00000001FF
